:020000040000FA
:060000000A128A110C280F
:10000800FE00030EF0000A08F1000A128A11B52C4E
:100018000A128A110F280A128A11DE240A128A117A
:10002800FB0083132030840033300A128A11D6244F
:10003800F801F901FA0183010A128A1123288316AB
:1000480003138801870183120313880187010A12A9
:100058008A1137230A128A11053083120313C2004A
:100068004208F2004830C3004308F30008300A127F
:100078008A1144210A128A11F501F50A01300A127F
:100088008A1112240A128A1101300A128A11402494
:100098000A128A117B03031924294E2848300A12B0
:1000A8008A1183240A128A1183120313C200420898
:1000B800FA0000300A128A11AC220A128A11FF30A3
:1000C80083120313C2004208B3000530C30043087B
:1000D800B4007A080A128A110E220A128A118312AF
:1000E8000313C4004408F900F50102300A128A110A
:1000F80012240A128A1179088400831300080A124C
:100108008A119E230A128A110A128A11C7240A1216
:100118008A112E300A128A11C7240A128A11790804
:10012800023E8400831300080A128A119E230A12D1
:100138008A110A128A11C7240A128A117908043E00
:100148008400831300080A128A119E230A128A1156
:100158000A128A11C7240A128A1156300A128A1101
:10016800C7240A128A11392948300A128A118324AD
:100178000A128A1183120313C2004208B200053022
:100188000A128A11AC220A128A11FF308312031351
:10019800C2004208B3000530C3004308B400320867
:1001A8000A128A110E220A128A1183120313C4003A
:1001B8004408F8000630C2004208F50002300A126E
:1001C8008A1112240A128A117808840083130008FD
:1001D8000A128A119E230A128A110A128A11C72446
:1001E8000A128A112E300A128A11C7240A128A1199
:1001F8007808023E8400831300080A128A119E239D
:100208000A128A110A128A11C7240A128A11780856
:10021800043E8400831300080A128A119E230A12DE
:100228008A110A128A11C7240A128A1156300A1230
:100238008A11C7240A128A113929B201FA01392907
:10024800831203131F0CC200420C0F39C300C401F0
:100258004408003A0319312921294308003A0319AF
:10026800B828053A031952282129FB0183120313E0
:100278000C13831603130C17831203139F144E28B1
:10028800F6005E293F30831203139F057D29572905
:10029800831203131F083F3980385C29C03083124A
:1002A80003139F047D29831203131F083F39403825
:1002B8009F007D297608F400F5017508003A0319B6
:1002C800662957297408013A03194629053A03197A
:1002D8004B290C3A03194C291C3A0319522957295E
:1002E8007929831603139F17D829831603139F139D
:1002F800D8297308F400F5017508003A031985290F
:1003080079297408483A03197429043A0319752994
:1003180079290514831603170814C33083120313AD
:100328009F05FA298514831603178814831203136B
:100338001F08C3390438D62905158316031708156D
:10034800831203131F08C3390838D6298515831665
:1003580003178815B3298516831603170816831201
:1003680003131F08C3390C38D62909148316031739
:100378008816831203131F08C3391438D629891421
:10038800831603170817831203131F08C339183875
:10039800D6290915831603178817831203131F0814
:1003A800C3391C389F00FA297208F400F501750852
:1003B800003A0319E029FA297408003A03198D292B
:1003C800013A03199629033A0319A029013A031996
:1003D800AA29073A0319AF29013A0319B929033A97
:1003E8000319C329013A0319CD29FA2983121F14C5
:1003F8000C13831603130C170B178B172730F500F4
:10040800F530F400F40B062AF50B062A83120313C1
:100418009F14080083120313B9003A308400063091
:10042800FF0083138001840AFF0B152A3908B500E1
:10043800B6013508F2003608F3003408B700B801F1
:100448003708F4003808F5000A128A1162240A12E3
:100458008A11730883120313C1007208C00033089D
:10046800B500B60136084102031D3C2A3508400292
:10047800031C4E2A3A08013EBA003B080318013E05
:10048800003EBB0033084002C0004108031C410382
:10049800C100332A4108F3004008F2000A30F40092
:1004A8000030F5000A128A1162240A128A117308B0
:1004B80083120313C1007208C0003308B500B601E7
:1004C80036084102031D6A2A35084002031C7C2AAB
:1004D8003C08013EBC003D080318013E003EBD003B
:1004E80033084002C0004108031C4103C100612ACF
:1004F8004108F3004008F2000A30F4000030F5002B
:100508000A128A1162240A128A11730883120313C9
:10051800C1007208C0003308B500B60136084102B0
:10052800031D982A35084002031CAA2A3E08013EEA
:10053800BE003F080318013E003EBF0033084002DA
:10054800C0004108031C4103C1008F2A3A3008004B
:10055800F400142B831603130514831603170814C9
:10056800C330831203139F050800831603138514F1
:10057800831603178814831203131F08C33904381A
:100588009F00080083160313051583160317081523
:10059800831203131F08C33908389F000800831605
:1005A80003138515831603178815831203131F0871
:1005B800C3390C389F000800831603138516831669
:1005C80003170816831203131F08C3390C389F003A
:1005D8000800831603130914831603178816831259
:1005E80003131F08C33914389F0008008316031328
:1005F8008914831603170817831203131F08C339B6
:1006080018389F000800831603130915831603176B
:100618008817831203131F08C3391C389F0008006A
:100628007408F200F3017308003A03191C2B362BE7
:100638007208003A0319AE2A013A0319B92A033A93
:100648000319C62A013A0319D32A073A0319E02ADB
:10065800013A0319ED2A033A0319FA2A013A031950
:10066800072B362B08001A30F600F830F500F50B8A
:100678003B2BF60B3B2B000030300A128A11E32388
:100688000A128A110730F6007D30F500F50B4A2B67
:10069800F60B4A2B30300A128A11E3230A128A1108
:1006A8002130F500F50B562B30300A128A11E3235E
:1006B8000A128A112130F500F50B602B38300A1226
:1006C8008A11E3230A128A111130F500F50B6A2BFF
:1006D800000008300A128A11E3230A128A11113025
:1006E800F500F50B752B000001300A128A11E3237F
:1006F8000A128A110430F600E430F500F50B822B5B
:10070800F60B822B000006300A128A11E3230A1224
:100718008A111130F500F50B8F2B00000C300A12EE
:100728008A11E3230A128A111130F500F50B9A2B6E
:1007380000000800F400B92B3030B52B3130B52B50
:100748003230B52B3330B52B3430B52B3530B52B93
:100758003630B52B3730B52B3830B52B3930B52B73
:10076800D630F2007208F500E12B7408F200F301AC
:100778007308003A0319C12BB42B7208003A031905
:10078800A02B013A0319A22B033A0319A42B013A0F
:100798000319A62B073A0319A82B013A0319AA2B08
:1007A800033A0319AC2B013A0319AE2B0F3A03197C
:1007B800B02B013A0319B22BB42B75080800F400CA
:1007C8008312031307100730F3007D30F200F20B99
:1007D800EB2BF30BEB2B8312031387140730F30077
:1007E8007D30F200F20BF62BF30BF62B7408831214
:1007F800031388000730F3007D30F200F20B022C5F
:10080800F30B022C8312031387100730F3007D309B
:10081800F200F20B0D2CF30B0D2C080083120313BE
:10082800B3002F2C7508803EF6007608B400340813
:100838000A128A11E32308007508C03EF6007608FC
:10084800B40034080A128A11E323080080300A121F
:100858008A11E32308003308F600F7017708003A05
:100868000319372C2A2C7608013A0319162C033A57
:100878000319202C2A2C0800F600F401F50174084D
:10088800760784000A128A11A0240A128A11003AF3
:10089800031908007408760784000A128A11A02434
:1008A8000A128A110A128A11C7240A128A110130FF
:1008B800F4070318F50A0030F507432CF601F70191
:1008C800721C6C2C7408F6070318F70A7508F707EA
:1008D80001300310F40DF50DFF3E031D6D2C0130A2
:1008E8000310F30CF20CFF3E031D742C7208730402
:1008F800031D642C7708F3007608F2000800F40062
:100908008E2C8312882C831603131E08F20072089B
:10091800F5009E2C7408F200F3017308003A0319DD
:10092800962C852C7208483A0319852C043A031929
:10093800872C852C7508080004308A000408840A6E
:1009480082070034533431342034203420342034A6
:100958005334323420342034203420345334333464
:100968000034831203130C1FC02C831603130C1FAF
:10097800C02C0C13FB01FB0A71088A00700E83005F
:10098800FE0E7E0E0900F30083120313071473088A
:10099800880087140D30F200F20BD02C8312031359
:1009A8008710080064008001840A040603190034D3
:0609B8000406D72C0134F7
:04400E00D4E0FFFFFC
:00000001FF
