:020000040000FA
:060000000A128A110C280F
:10000800FE00030EF0000A08F1000A128A11832F7D
:100018000A128A110F280A128A11C9270A128A118C
:10002800D7000A128A11CA270A128A11D800831324
:10003800203084003D300A128A11C127FA01FB01E1
:1000480083010A128A11282883160313880187015D
:1000580083120313880187010A128A11AC250A1238
:100068008A11053083120313D4005408F200483073
:10007800D5005508F30004300A128A11DE210A124D
:100088008A11F501F50A01300A128A11E2260A12CC
:100098008A1101300A128A110E270A128A112C308D
:1000A80083120313C4000130C5000A128A11A82262
:1000B8000A128A11831203138C1E77280A128A11D6
:1000C800B5270A128A1183120313D4005408D700E3
:1000D800073083120313D5007C30D400D40B722868
:1000E800D50B7228000083120313580303194F29F4
:1000F800762948300A128A1151270A128A11831266
:100108000313D4005408BC0000300A128A119C243E
:100118000A128A11FF3083120313D4005408F8001E
:100128000530D5005508F9003C080A128A116F23DA
:100138000A128A1183120313D6005608FB00F50130
:1001480002300A128A11E2260A128A117B088400F8
:10015800831300080A128A116E260A128A110A12DB
:100168008A11A6270A128A112E300A128A11A62786
:100178000A128A117B08023E8400831300080A12BF
:100188008A116E260A128A110A128A11A6270A12E1
:100198008A117B08043E8400831300080A128A111E
:1001A8006E260A128A110A128A11A6270A128A11C1
:1001B80056300A128A11A6270A128A116229483073
:1001C8000A128A1151270A128A1183120313D400C2
:1001D8005408BB0005300A128A119C240A128A119D
:1001E800FF3083120313D4005408F8000530D500FB
:1001F8005508F9003B080A128A116F230A128A115E
:1002080083120313D6005608FA000630D4005408A7
:10021800F50002300A128A11E2260A128A117A08B7
:100228008400831300080A128A116E260A128A11A2
:100238000A128A11A6270A128A112E300A128A1166
:10024800A6270A128A117A08023E8400831300083E
:100258000A128A116E260A128A110A128A11A62710
:100268000A128A117A08043E8400831300080A12CD
:100278008A116E260A128A110A128A11A6270A12F0
:100288008A1156300A128A11A6270A128A1162297F
:10029800BB01BC0162291F0CD400540C0F39D500D6
:1002A800D6015608003A03195A294C295508003A2C
:1002B8000319E328053A03197D284C2983120313EF
:1002C800D8010C13831603130C17831203139F14FE
:1002D80076290130D4005408B807D701862901309F
:1002E800B80271295708D400D5015508003A0319F6
:1002F8007E29862954082B3A03196D29063A0319D1
:100308007329862938080A128A1127250A128A11A0
:1003180083120313D4005408BA000D30D4005408D3
:10032800F50002300A128A11E2260A128A11831293
:1003380003133A088400831300080A128A116E26F0
:100348000A128A110A128A11A6270A128A1183121E
:1003580003133A08023E8400831300080A128A1124
:100368006E260A128A110A128A11A6270A128A11FF
:10037800831203133A08043E8400831300080A1208
:100388008A116E260A128A110A128A11A6270A12DF
:100398008A11831203133C080A128A1197270A123A
:1003A8008A11831203133B080A128A1197270A122B
:1003B8008A115E28F600F8293F30831203139F053F
:1003C800172AF129831203131F083F398038F629A9
:1003D800C030831203139F04172A831203131F08C4
:1003E8003F3940389F00172A7608F400F501750850
:1003F800003A0319002AF1297408013A0319E0297F
:10040800053A0319E5290C3A0319E6291C3A031998
:10041800EC29F129132A831603139F17722A8316CE
:1004280003139F13722A7308F400F5017508003A44
:1004380003191F2A132A7408483A03190E2A043A82
:1004480003190F2A132A0514831603170814C33037
:10045800831203139F05942A85148316031788149F
:10046800831203131F08C3390438702A051583162D
:1004780003170815831203131F08C3390838702A95
:1004880085158316031788154D2A851683160317B5
:100498000816831203131F08C3390C38702A09146D
:1004A800831603178816831203131F08C3391438D9
:1004B800702A8914831603170817831203131F0859
:1004C800C3391838702A0915831603178817831239
:1004D80003131F08C3391C389F00942A7208F400BC
:1004E800F5017508003A03197A2A942A7408003A23
:1004F8000319272A013A0319302A033A03193A2A19
:10050800013A0319442A073A0319492A013A0319F7
:10051800532A033A03195D2A013A0319672A942AD0
:1005280083121F140C13831603130C170B178B1746
:100538002730F500F530F400F40BA02AF50BA02ABB
:10054800831203139F140800831203134508C7007E
:100558004408C6000630FF000310C60DC70DFF0B88
:10056800B02A4608F2004708F300F401F5014508EF
:10057800C9004408C8000630FF000310C80DC90DA3
:10058800FF0BC12A4808CA004908CB00CC01CD019D
:100598000030CE000930CF003D30D0000030D1000F
:1005A8004A08CE024B08031C4B0FDB2ADC2ACF0279
:1005B8004C08031C4C0FE12AE22AD0024D08031C08
:1005C8004D0FE72AE82AD1025108F9005008F8002F
:1005D8004F08F7004E08F6000A128A110D240A1275
:1005E8008A11730883120313D3007208D2000130F2
:1005F8005302003003195202031C5A2B4508C70046
:100608004408C600C60EC70EF030C70546080F39A5
:10061800C704F030C6054608F2004708F300F401A5
:10062800F5014508C9004408C800C80EC90EF030D5
:10063800C90548080F39C904F030C8054808CA0078
:100648004908CB00CC01CD010030CE000930CF00E5
:100658003D30D0000030D1004A08CE024B08031CC0
:100668004B0F372B382BCF024C08031C4C0F3D2B5C
:100678003E2BD0024D08031C4D0F432B442BD102B7
:100688005108F9005008F8004F08F7004E08F60026
:100698000A128A110D240A128A117308831203138D
:1006A800D3007208D2008316031318150130831281
:1006B8005302003003195202031808005208831627
:1006C8000313990018128312031398171816831628
:1006D80003139816080083120313C10042308400E4
:1006E8000630FF0083138001840AFF0B762B410834
:1006F800BD00BE013D08F2003E08F3007908BF00C6
:10070800C0013F08F4004008F5000A128A1130279A
:100718000A128A11730883120313C9007208C800E9
:100728007808BD00BE013E084902031D9D2B3D0807
:100738004802031CAF2B4208013EC20043080318BD
:10074800013E003EC30078084802C8004908031C5F
:100758004903C900942B4908F3004808F2000A30FD
:10076800F4000030F5000A128A1130270A128A11A3
:10077800730883120313C9007208C8007808BD0003
:10078800BE013E084902031DCB2B3D084802031C4D
:10079800DD2B4408013EC40045080318013E003E15
:1007A800C50078084802C8004908031C4903C90065
:1007B800C22B4908F3004808F2000A30F400003060
:1007C800F5000A128A1130270A128A117308831257
:1007D8000313C9007208C8007808BD00BE013E08AE
:1007E8004902031DF92B3D084802031C0B2C46083F
:1007F800013EC60047080318013E003EC7007808BE
:100808004802C8004908031C4903C900F02B4230BC
:10081800080083120313BF01F51F1F2CF209F30907
:10082800F409F509F20A0319F30A0319F40A03197A
:10083800F50ABF01BF0AF91F302CF609F709F809B4
:10084800F909F60A0319F70A0319F80A0319F90A44
:100858000130BD003D08BF060030C3000030C200B3
:100868000030C1000030C0007508740473047204BD
:100878000319852CBE01BE0AF51B502C0130BD00A2
:100888000310F20DF30DF40DF50DBD0B442C0130E2
:10089800BD003D08BE07402C0130BD000310C00D4F
:1008A800C10DC20DC30DBD0B522C75087902031D75
:1008B800672C74087802031D672C73087702031DE0
:1008C800672C72087602031C782C7208F6027308EB
:1008D800031C730FF7027408031C740FF8027508E1
:1008E800031C750FF902401401300310F50CF40CC9
:1008F800F30CF20CFF3E031D792C0130BE02031DE0
:10090800502C3F080319932CC009C109C209C30917
:10091800C00A0319C10A0319C20A0319C30A430802
:10092800F5004208F4004108F3004008F20008000E
:10093800F400042D831603130514831603170814F3
:10094800C330831203139F0508008316031385140D
:10095800831603178814831203131F08C339043836
:100968009F0008008316031305158316031708153F
:10097800831203131F08C33908389F000800831621
:1009880003138515831603178815831203131F088D
:10099800C3390C389F000800831603138516831685
:1009A80003170816831203131F08C3390C389F0056
:1009B8000800831603130914831603178816831275
:1009C80003131F08C33914389F0008008316031344
:1009D8008914831603170817831203131F08C339D2
:1009E80018389F0008008316031309158316031788
:1009F8008817831203131F08C3391C389F00080087
:100A08007408F200F3017308003A03190C2D262D1F
:100A18007208003A03199E2C013A0319A92C033ACB
:100A28000319B62C013A0319C32C073A0319D02C21
:100A3800013A0319DD2C033A0319EA2C013A031988
:100A4800F72C262D080083120313D3004C308400A2
:100A58000630FF0083138001840AFF0B2E2D6430BB
:100A6800BD000030BE005308C500C6014508BF00E0
:100A78004608C0000A128A1113260A128A11831224
:100A880003133E08CD003D08CC004C08C5004508BE
:100A9800D2000A30BD000030BE005208C500C601B1
:100AA8004508F2004608F3009C30F400FF30F500DA
:100AB8000A128A1130270A128A1183120313530863
:100AC8007207BF0073080318730AC0000A128A115C
:100AD80013260A128A11831203133E08CF003D0819
:100AE800CE004E08C5004508CB005208C500C60117
:100AF8004508F2004608F3009C30F400FF30F5008A
:100B08000A128A1130270A128A1183120313530812
:100B18007207C70073080318730AC8004B08C90096
:100B2800CA014908F2004A08F300F630F400FF3021
:100B3800F5000A128A113027720883120313470737
:100B4800D00073080318730A4807D1004C30080016
:100B58001A30F600F830F500F50BB02DF60BB02D75
:100B6800000030300A128A11B3260A128A1107309F
:100B7800F6007D30F500F50BBF2DF60BBF2D30309C
:100B88000A128A11B3260A128A112130F500F50BD0
:100B9800CB2D30300A128A11B3260A128A1121305D
:100BA800F500F50BD52D38300A128A11B3260A1232
:100BB8008A111130F500F50BDF2D000008300A12FC
:100BC8008A11B3260A128A111130F500F50BEA2DA5
:100BD800000001300A128A11B3260A128A11043061
:100BE800F600E430F500F50BF72DF60BF72D0000B5
:100BF80006300A128A11B3260A128A111130F5003A
:100C0800F50B042E00000C300A128A11B3260A12C2
:100C18008A111130F500F50B0F2E00000800831221
:100C28000313C201BE1F1F2EBD09BE09BD0A031949
:100C3800BE0AC201C20AC01F2A2EBF09C009BF0AC4
:100C48000319C00A0130F8007808C206C301C401BC
:100C58003D083E040319612EC101C10ABE1B402E86
:100C680001300310BD0DBE0DFF3E031D352E0130B2
:100C7800F8007808C107322E01300310C30DC40DE7
:100C8800FF3E031D412E3E084002031D4D2E3D0828
:100C98003F02031C562E3D08BF023E08031CC0033A
:100CA800C002431401300310BE0CBD0CFF3E031DEF
:100CB800572E0130C102031D402E42080319692E28
:100CC800C309C409C30A0319C40A4408BE00430877
:100CD800BD000800F400892E3030852E3130852E75
:100CE8003230852E3330852E3430852E3530852EA2
:100CF8003630852E3730852E3830852E3930852E82
:100D0800D630F2007208F500B12E7408F200F30133
:100D18007308003A0319912E842E7208003A0319B9
:100D2800702E013A0319722E033A0319742E013AF0
:100D38000319762E073A0319782E013A03197A2EE9
:100D4800033A03197C2E013A03197E2E0F3A031930
:100D5800802E013A0319822E842E75080800F400AB
:100D68008312031307100730F3007D30F200F20BF3
:100D7800BB2EF30BBB2E8312031387140730F3002B
:100D88007D30F200F20BC62EF30BC62E74088312C8
:100D9800031388000730F3007D30F200F20BD22EE7
:100DA800F30BD22E8312031387100730F3007D3024
:100DB800F200F20BDD2EF30BDD2E0800F800FD2EFD
:100DC8007508803EF6007608F90079080A128A113B
:100DD800B32608007508C03EF6007608F9007908C1
:100DE8000A128A11B326080080300A128A11B32623
:100DF80008007808F600F7017708003A0319052F6C
:100E0800F82E7608013A0319E42E033A0319EE2E58
:100E1800F82E0800F600F401F5017408760784003E
:100E28000A128A116E270A128A11003A0319080059
:100E38007408760784000A128A116E270A128A112A
:100E48000A128A11A6270A128A110130F407031818
:100E5800F50A0030F507112FF601F701721C3A2F39
:100E68007408F6070318F70A7508F7070130031026
:100E7800F40DF50DFF3E031D3B2F01300310F30C5D
:100E8800F20CFF3E031D422F72087304031D322F1C
:100E98007708F3007608F2000800F4005C2F83124C
:100EA800562F831603131E08F2007208F5006C2FE4
:100EB8007408F200F3017308003A0319642F532FE2
:100EC8007208483A0319532F043A0319552F532F20
:100ED8007508080007308A000408840A820700346D
:100EE80053343134203420342034203453343234D1
:100EF80020342034203420345334333400348312E3
:100F080003130C1F902F831603130C1F902F0C1321
:100F180083120313D801D80A71088A00700E83005F
:100F2800FE0E7E0E0900F300730883120313990066
:100F38008316031398180800A630F200F20BA22FAC
:100F480000009C2FF3008312031307147308880012
:100F580087140D30F200F20BAF2F831203138710A2
:100F680008000730F3007D30F200F20BB92FF30BC5
:100F7800B92F831203131A08080064008001840A39
:0E0F88000406031900340406C22F4534013458
:04400E00D4E0FFFFFC
:00000001FF
