:020000040000FA
:100000000A128A11EE2F00308A000408840A82073F
:100010000034533468346F342034763469346534B2
:060020006A346F34003465
:100D5200F1008312031307147108880087140D3001
:100D6200F000F00BB22E8312031387100800F40078
:100D7200F50175087402031C080014300A128A1166
:100D820017270A128A110130F3007308F507BA2EE9
:100D9200F400F201F3017208740784000A128A1146
:100DA20003200A128A11003A031908007208740714
:100DB20084000A128A1103200A128A110A128A1165
:100DC200A9260A128A110130F2070318F30A003029
:100DD200F307CC2EF600062F7308803EF400740849
:100DE200F70077080A128A11172708007308C03E15
:100DF200F4007408F70077080A128A11172708000E
:100E020080300A128A11172708007608F400F501CB
:100E12007508003A03190E2F012F7408013A0319BD
:100E2200ED2E033A0319F72E012F0800F200831268
:100E3200031307100730F1007D30F000F00B1F2F75
:100E4200F10B1F2F8312031387140730F1007D303B
:100E5200F000F00B2A2FF10B2A2F720883120313D2
:100E620088000730F1007D30F000F00B362FF10BD7
:100E7200362F8312031387100730F1007D30F00004
:100E8200F00B412FF10B412F080083160313880149
:100E9200870183120313880187010A128A118727A7
:100EA2000A128A110330F8007808F30001300A129E
:100EB2008A11EB260A128A1101300A128A11C926F6
:100EC2000A128A110530F8007808F30002300A127B
:100ED2008A11EB260A128A1157300A128A11A926A0
:100EE2000A128A1101300A128A11B8260A128A11CC
:100EF2000330FA008A30F9005530F800F80B7F2FE2
:100F0200F90B7F2FFA0B7F2F862F6D2F1A30F400EB
:100F1200F830F300F30B8B2FF40B8B2F00003030E3
:100F22000A128A1117270A128A110730F4007D303B
:100F3200F300F30B9A2FF40B9A2F30300A128A1116
:100F420017270A128A112130F300F30BA62F303033
:100F52000A128A1117270A128A112130F300F30BA1
:100F6200B02F38300A128A1117270A128A1111304B
:100F7200F300F30BBA2F000008300A128A11172768
:100F82000A128A111130F300F30BC52F0000013051
:100F92000A128A1117270A128A110430F400E43067
:100FA200F300F30BD22FF40BD22F000006300A12FB
:100FB2008A1117270A128A111130F300F30BDF2F5F
:100FC20000000C300A128A1117270A128A111130F6
:100FD200F300F30BEA2F0000080083120313A001B1
:100FE200A101A201A301A401A501A601A701A801D3
:0E0FF200A901AA01AB0183010A128A11462F40
:04400E00D4E0FFFFFC
:00000001FF
