:020000040000FA
:100000000A128A11FC2F00308A000408840A820731
:100010000034563461346D346F346E346F3473345D
:10002000203470346534723472346F347334003475
:100E0C00F1008312031307147108880087140D3046
:100E1C00F000F00B0F2F8312031387100800003023
:100E2C000A128A1166270A128A1102300A128A11D2
:100E3C0066270A128A110630F4003030F300F30BE7
:100E4C00252FF40B252F00000800831603138801AF
:100E5C00870183120313880187010A128A119527CF
:100E6C000A128A110A128A1115270A128A110130E4
:100E7C000A128A1144270A128A11382FF400F2013F
:100E8C00F3017208740784000A128A1103200A12F3
:100E9C008A11003A031908007208740784000A12B8
:100EAC008A1103200A128A110A128A1106270A12C1
:100EBC008A110130F2070318F30A0030F307472FA9
:100ECC00F2008312031307100730F1007D30F0009D
:100EDC00F00B6E2FF10B6E2F831203138714073058
:100EEC00F1007D30F000F00B792FF10B792F7208A7
:100EFC008312031388000730F1007D30F000F00BF3
:100F0C00852FF10B852F8312031387100730F10007
:100F1C007D30F000F00B902FF10B902F08001A3061
:100F2C00F400F830F300F30B992FF40B992F000019
:100F3C0030300A128A1166270A128A110730F4001F
:100F4C007D30F300F30BA82FF40BA82F30300A12CE
:100F5C008A1166270A128A112130F300F30BB42F81
:100F6C0030300A128A1166270A128A112130F300D6
:100F7C00F30BBE2F38300A128A1166270A128A1117
:100F8C001130F300F30BC82F000008300A128A113D
:100F9C0066270A128A111130F300F30BD32F0000CD
:100FAC0001300A128A1166270A128A110430F400E1
:100FBC00E430F300F30BE02FF40BE02F00000630CD
:100FCC000A128A1166270A128A111130F300F30BE8
:100FDC00ED2F00000C300A128A1166270A128A11B2
:100FEC001130F300F30BF82F0000080083010A12F4
:040FFC008A112B2FFC
:04400E00D4E0FFFFFC
:00000001FF
