:020000040000FA
:060000000A128A110C280F
:10000800FE00030EF0000A08F1000A128A11732F8D
:100018000A128A110F280A128A11AA270A128A11AB
:10002800D7000A128A11AB270A128A11D800831343
:10003800203084003D300A128A11A227FA01FB0100
:1000480083010A128A11282883160313880187015D
:1000580083120313880187010A128A119C250A1248
:100068008A11053083120313D4005408F200483073
:10007800D5005508F30004300A128A11CE210A125D
:100088008A11F501F50A01300A128A11D2260A12DC
:100098008A1101300A128A11FE260A128A112C309E
:1000A80083120313C4000130C5000A128A11982272
:1000B8000A128A11831203138C1E77280A128A11D6
:1000C80096270A128A1183120313D4005408D70002
:1000D800073083120313D5007C30D400D40B722868
:1000E800D50B7228000083120313580303194F29F4
:1000F800762948300A128A1141270A128A11831276
:100108000313D4005408BC0000300A128A118C244E
:100118000A128A11FF3083120313D4005408F8001E
:100128000530D5005508F9003C080A128A115F23EA
:100138000A128A1183120313D6005608FB00F50130
:1001480002300A128A11D2260A128A117B08840008
:10015800831300080A128A115E260A128A110A12EB
:100168008A1187270A128A112E300A128A118727C4
:100178000A128A117B08023E8400831300080A12BF
:100188008A115E260A128A110A128A1187270A1210
:100198008A117B08043E8400831300080A128A111E
:1001A8005E260A128A110A128A1187270A128A11F0
:1001B80056300A128A1187270A128A116229483092
:1001C8000A128A1141270A128A1183120313D400D2
:1001D8005408BB0005300A128A118C240A128A11AD
:1001E800FF3083120313D4005408F8000530D500FB
:1001F8005508F9003B080A128A115F230A128A116E
:1002080083120313D6005608FA000630D4005408A7
:10021800F50002300A128A11D2260A128A117A08C7
:100228008400831300080A128A115E260A128A11B2
:100238000A128A1187270A128A112E300A128A1185
:1002480087270A128A117A08023E8400831300085D
:100258000A128A115E260A128A110A128A1187273F
:100268000A128A117A08043E8400831300080A12CD
:100278008A115E260A128A110A128A1187270A121F
:100288008A1156300A128A1187270A128A1162299E
:10029800BB01BC0162291F0CD400540C0F39D500D6
:1002A800D6015608003A03195A294C295508003A2C
:1002B8000319E328053A03197D284C2983120313EF
:1002C800D8010C13831603130C17831203139F14FE
:1002D80076290130D4005408B807D701862901309F
:1002E800B80271295708D400D5015508003A0319F6
:1002F8007E29862954082B3A03196D29063A0319D1
:100308007329862938080A128A1117250A128A11B0
:1003180083120313D4005408BA000D30D4005408D3
:10032800F50002300A128A11D2260A128A118312A3
:1003380003133A088400831300080A128A115E2600
:100348000A128A110A128A1187270A128A1183123D
:1003580003133A08023E8400831300080A128A1124
:100368005E260A128A110A128A1187270A128A112E
:10037800831203133A08043E8400831300080A1208
:100388008A115E260A128A110A128A1187270A120E
:100398008A115E28F600E8293F30831203139F056F
:1003A800072AE129831203131F083F398038E629F9
:1003B800C030831203139F04072A831203131F08F4
:1003C8003F3940389F00072A7608F400F501750880
:1003D800003A0319F029E1297408013A0319D029D0
:1003E800053A0319D5290C3A0319D6291C3A0319D9
:1003F800DC29E129032A831603139F17622A83162F
:1004080003139F13622A7308F400F5017508003A74
:1004180003190F2A032A7408483A0319FE29043AD3
:100428000319FF29032A0514831603170814C33078
:10043800831203139F05842A8514831603178814CF
:10044800831203131F08C3390438602A051583165D
:1004580003170815831203131F08C3390838602AC5
:1004680085158316031788153D2A851683160317E5
:100478000816831203131F08C3390C38602A09149D
:10048800831603178816831203131F08C3391438F9
:10049800602A8914831603170817831203131F0889
:1004A800C3391838602A0915831603178817831269
:1004B80003131F08C3391C389F00842A7208F400EC
:1004C800F5017508003A03196A2A842A7408003A63
:1004D8000319172A013A0319202A033A03192A2A69
:1004E800013A0319342A073A0319392A013A031938
:1004F800432A033A03194D2A013A0319572A842A31
:1005080083121F140C13831603130C170B178B1766
:100518002730F500F530F400F40B902AF50B902AFB
:10052800831203139F140800831203134508C7009E
:100538004408C6000630FF000310C60DC70DFF0BA8
:10054800A02A4608F2004708F300F401F50145081F
:10055800C9004408C8000630FF000310C80DC90DC3
:10056800FF0BB12A4808CA004908CB00CC01CD01CD
:100578000030CE000930CF003D30D0000030D1002F
:100588004A08CE024B08031C4B0FCB2ACC2ACF02B9
:100598004C08031C4C0FD12AD22AD0024D08031C48
:1005A8004D0FD72AD82AD1025108F9005008F8006F
:1005B8004F08F7004E08F6000A128A11FD230A12A6
:1005C8008A11730883120313D3007208D200013012
:1005D8005302003003195202031C4A2B4508C70076
:1005E8004408C600C60EC70EF030C70546080F39C6
:1005F800C704F030C6054608F2004708F300F401C6
:10060800F5014508C9004408C800C80EC90EF030F5
:10061800C90548080F39C904F030C8054808CA0098
:100628004908CB00CC01CD010030CE000930CF0005
:100638003D30D0000030D1004A08CE024B08031CE0
:100648004B0F272B282BCF024C08031C4C0F2D2BAC
:100658002E2BD0024D08031C4D0F332B342BD10207
:100668005108F9005008F8004F08F7004E08F60046
:100678000A128A11FD230A128A11730883120313BE
:10068800D3007208D20083160313181501308312A1
:100698005302003003195202031808005208831647
:1006A8000313990018128312031398171816831648
:1006B80003139816080083120313C1004230840004
:1006C8000630FF0083138001840AFF0B662B410864
:1006D800BD00BE013D08F2003E08F3007908BF00E6
:1006E800C0013F08F4004008F5000A128A112027CB
:1006F8000A128A11730883120313C9007208C8000A
:100708007808BD00BE013E084902031D8D2B3D0837
:100718004802031C9F2B4208013EC20043080318ED
:10072800013E003EC30078084802C8004908031C7F
:100738004903C900842B4908F3004808F2000A302D
:10074800F4000030F5000A128A1120270A128A11D3
:10075800730883120313C9007208C8007808BD0023
:10076800BE013E084902031DBB2B3D084802031C7D
:10077800CD2B4408013EC40045080318013E003E45
:10078800C50078084802C8004908031C4903C90085
:10079800B22B4908F3004808F2000A30F400003090
:1007A800F5000A128A1120270A128A117308831287
:1007B8000313C9007208C8007808BD00BE013E08CE
:1007C8004902031DE92B3D084802031CFB2B460880
:1007D800013EC60047080318013E003EC7007808DE
:1007E8004802C8004908031C4903C900E02B4230ED
:1007F800080083120313BF01F51F0F2CF209F30938
:10080800F409F509F20A0319F30A0319F40A03199A
:10081800F50ABF01BF0AF91F202CF609F709F809E4
:10082800F909F60A0319F70A0319F80A0319F90A64
:100838000130BD003D08BF060030C3000030C200D3
:100848000030C1000030C0007508740473047204DD
:100858000319752CBE01BE0AF51B402C0130BD00E2
:100868000310F20DF30DF40DF50DBD0B342C013012
:10087800BD003D08BE07302C0130BD000310C00D7F
:10088800C10DC20DC30DBD0B422C75087902031DA5
:10089800572C74087802031D572C73087702031D20
:1008A800572C72087602031C682C7208F60273082B
:1008B800031C730FF7027408031C740FF802750801
:1008C800031C750FF902401401300310F50CF40CE9
:1008D800F30CF20CFF3E031D692C0130BE02031D10
:1008E800402C3F080319832CC009C109C209C30958
:1008F800C00A0319C10A0319C20A0319C30A430823
:10090800F5004208F4004108F3004008F20008002E
:10091800F400F42C83160313051483160317081424
:10092800C330831203139F0508008316031385142D
:10093800831603178814831203131F08C339043856
:100948009F0008008316031305158316031708155F
:10095800831203131F08C33908389F000800831641
:1009680003138515831603178815831203131F08AD
:10097800C3390C389F0008008316031385168316A5
:1009880003170816831203131F08C3390C389F0076
:100998000800831603130914831603178816831295
:1009A80003131F08C33914389F0008008316031364
:1009B8008914831603170817831203131F08C339F2
:1009C80018389F00080083160313091583160317A8
:1009D8008817831203131F08C3391C389F000800A7
:1009E8007408F200F3017308003A0319FC2C162D61
:1009F8007208003A03198E2C013A0319992C033A0C
:100A08000319A62C013A0319B32C073A0319C02C71
:100A1800013A0319CD2C033A0319DA2C013A0319C8
:100A2800E72C162D080083120313D3004C308400E2
:100A38000630FF0083138001840AFF0B1E2D6430EB
:100A4800BD000030BE005308C500C6014508BF0000
:100A58004608C0000A128A1103260A128A11831254
:100A680003133E08CD003D08CC004C08C5004508DE
:100A7800D2000A30BD000030BE005208C500C601D1
:100A88004508F2004608F3009C30F400FF30F500FA
:100A98000A128A1120270A128A1183120313530893
:100AA8007207BF0073080318730AC0000A128A117C
:100AB80003260A128A11831203133E08CF003D0849
:100AC800CE004E08C5004508CB005208C500C60137
:100AD8004508F2004608F3009C30F400FF30F500AA
:100AE8000A128A1120270A128A1183120313530843
:100AF8007207C70073080318730AC8004B08C900B7
:100B0800CA014908F2004A08F300F630F400FF3041
:100B1800F5000A128A112027720883120313470767
:100B2800D00073080318730A4807D1004C30080036
:100B38001A30F600F830F500F50BA02DF60BA02DB5
:100B4800000030300A128A11A3260A128A110730CF
:100B5800F6007D30F500F50BAF2DF60BAF2D3030DC
:100B68000A128A11A3260A128A112130F500F50B00
:100B7800BB2D30300A128A11A3260A128A1121309D
:100B8800F500F50BC52D38300A128A11A3260A1272
:100B98008A111130F500F50BCF2D000008300A122C
:100BA8008A11A3260A128A111130F500F50BDA2DE5
:100BB800000001300A128A11A3260A128A11043091
:100BC800F600E430F500F50BE72DF60BE72D0000F5
:100BD80006300A128A11A3260A128A111130F5006A
:100BE800F50BF42D00000C300A128A11A3260A1204
:100BF8008A111130F500F50BFF2D00000800831253
:100C08000313C201BE1F0F2EBD09BE09BD0A031979
:100C1800BE0AC201C20AC01F1A2EBF09C009BF0AF4
:100C28000319C00A0130F8007808C206C301C401DC
:100C38003D083E040319512EC101C10ABE1B302EC6
:100C480001300310BD0DBE0DFF3E031D252E0130E2
:100C5800F8007808C107222E01300310C30DC40D17
:100C6800FF3E031D312E3E084002031D3D2E3D0868
:100C78003F02031C462E3D08BF023E08031CC0036A
:100C8800C002431401300310BE0CBD0CFF3E031D0F
:100C9800472E0130C102031D302E42080319592E78
:100CA800C309C409C30A0319C40A4408BE00430897
:100CB800BD000800F400792E3030752E3130752EC5
:100CC8003230752E3330752E3430752E3530752E02
:100CD8003630752E3730752E3830752E3930752EE2
:100CE800D630F2007208F500A12E7408F200F30164
:100CF8007308003A0319812E742E7208003A0319FA
:100D0800602E013A0319622E033A0319642E013A40
:100D18000319662E073A0319682E013A03196A2E39
:100D2800033A03196C2E013A03196E2E0F3A031970
:100D3800702E013A0319722E742E75080800F400FB
:100D48008312031307100730F3007D30F200F20B13
:100D5800AB2EF30BAB2E8312031387140730F3006B
:100D68007D30F200F20BB62EF30BB62E7408831208
:100D7800031388000730F3007D30F200F20BC22E17
:100D8800F30BC22E8312031387100730F3007D3054
:100D9800F200F20BCD2EF30BCD2E0800F800ED2E4D
:100DA8007508803EF6007608F90079080A128A115B
:100DB800A32608007508C03EF6007608F9007908F1
:100DC8000A128A11A326080080300A128A11A32663
:100DD80008007808F600F7017708003A0319F52E9D
:100DE800E82E7608013A0319D42E033A0319DE2EA9
:100DF800E82E0800F600F401F5017408760784006F
:100E08000A128A115E270A128A11003A0319080089
:100E18007408760784000A128A115E270A128A115A
:100E28000A128A1187270A128A110130F407031857
:100E3800F50A0030F507012FF601F701721C2A2F79
:100E48007408F6070318F70A7508F7070130031046
:100E5800F40DF50DFF3E031D2B2F01300310F30C8D
:100E6800F20CFF3E031D322F72087304031D222F5C
:100E78007708F3007608F2000800F4004C2F83127C
:100E8800462F831603131E08F2007208F5005C2F24
:100E98007408F200F3017308003A0319542F432F22
:100EA8007208483A0319432F043A0319452F432F70
:100EB8007508080007308A000408840A820700348D
:100EC80053343134203420342034203453343234F1
:100ED8002034203420342034533433340034831203
:100EE80003130C1F802F831603130C1F802F0C1362
:100EF80083120313D801D80A71088A00700E830080
:100F0800FE0E7E0E0900F300831203130714730804
:100F1800880087140D30F200F20B902F8312031310
:100F2800871008000730F3007D30F200F20B9A2F8B
:100F3800F30B9A2F831203131A0808006400800128
:100F4800840A0406031900340406A32F4534013427
:04400E00D4E0FFFFFC
:00000001FF
